:020000040800F2
:10000000703C0020CDA30008D9A40008DBA40008A0
:10001000DDA40008DFA40008E1A40008000000003F
:10002000000000000000000000000000114C00086B
:10003000E3A4000800000000B94B00089F48000836
:1000400091A6000895A6000899A600089DA600089C
:10005000A1A60008A5A60008A9A60008ADA600084C
:10006000B1A60008B5A60008B9A60008BDA60008FC
:10007000C1A60008C5A60008C9A60008CDA60008AC
:10008000D1A60008D5A60008D9A60008DDA600085C
:10009000E1A60008E5A60008E9A60008EDA600080C
:1000A000F1A60008F5A60008F9A60008FDA60008BC
:1000B00001A7000805A7000809A700080DA7000868
:1000C00011A7000815A7000819A700081DA7000818
:1000D00021A7000849500008FB1D0008B91E0008B0
:1000E00025A7000829A700082DA7000831A70008A8
:1000F00035A7000839A700083DA7000841A7000858
:1001000045A7000849A70008739000084DA70008FC
:10011000771F000851A7000855A7000859A7000835
:100120005DA7000861A7000865A7000869A7000887
:100130006DA7000871A7000875A7000879A7000837
:100140007DA7000881A7000885A7000889A70008E7
:100150008DA7000891A7000895A700080D32000898
:1001600099A700089DA70008A1A70008A5A7000857
:10017000A9A70008ADA70008B1A70008B5A7000807
:10018000B9A70008BDA70008C1A700082F200008D4
:10019000C5A70008C9A70008CDA70008D1A7000877
:1001A0000000000000000000D5A7000800F5E07086
:1001B0000268914203D343681A44914202D3806893
:1001C0000028F5D17047DFF86C17086890B94FF434
:1001D000805048604FF480324FF0FF30C8600861B3
:1001E0000420DFF854378A604861C3F8BC01DFF8A7
:1001F0004C0708600120704701F1080313F0070F56
:100200000EBF0023C3F1080303F007031944D21AF9
:100210008161C26042F001034B60091D4FF0280C60
:1002200041F802C0DFF80C271369C36170472DE95C
:10023000FC4B074601F1080010F0070F0FBF89467D
:10024000C0F1080000F0070001EB000902F108010D
:1002500011F0070F06D002F10800C0F1080000F00D
:10026000070002441546A5EB090009EB0306A0EBC5
:10027000030B43F00303C9F80430AE4228BF01F07A
:1002800005FA2879C10758BF01F000FABBF1100F39
:1002900038BF01F0FBF9B869854208D1F9688B4491
:1002A000C7F80CB0BE614BF00100706051E1786995
:1002B00085420AD1B9688B44C7F808B07E614BF01B
:1002C0000100706046F80BB043E1686800F003017C
:1002D000012940F0AC80C008C0000190C0081F2870
:1002E00039D8AC68D5F80C800090454508BF01F0BE
:1002F000CDF9A54208BF01F0C9F968680099C008A6
:10030000C000B0EBC10F18BF01F0C0F9009907F1B0
:10031000280000EBC100844206D039698C42C0F04D
:100320008180E268AA427DD1A04506D10098396853
:10033000012383409943396076E0804506D03969CE
:1003400088456FD3D8F80800A8426BD1C4F80C8058
:10035000C8F8084068E0EC68D5F81880AC420CD0CA
:10036000A8683969884223D3C268AA4204BFA16839
:10037000A9421DD1C460A0601CE005F114010C6805
:1003800034B905F110010C68A4B101E011460C6804
:1003900004F114021068002802BF04F11002106872
:1003A0000028F3D13869814202D300220A6001E0BB
:1003B00001F06CF9B8F1000F36D0E96907F59870D3
:1003C00000EB81000268954208D10460A4B9E86995
:1003D0007968012282409143796025E0386980453F
:1003E00008D3D8F81010A94214BFC8F81440C8F8B0
:1003F000104001E001F04AF9B4B139698C4211D3DF
:10040000C4F81880286928B1884226BF2061846119
:1004100001F03CF9686938B13969884202D36061FA
:10042000846101E001F032F901996D188B4469682B
:100430004908490069604BF0010070604FEADB0435
:1004400046F80BB01F2C23D807F1280000EBC40896
:100450004546BBF1100F38BF01F018F9386820FA93
:1004600004F1CA0705D4012101FA04F404433C60F5
:1004700007E0D8F80800396988422CBF054601F02A
:1004800005F9C8F80860EE60B560C6F80C8060E059
:100490005FEA1B2008BF002123D0B0F5803F28BFB2
:1004A0001F211ED2A0F58072120C02F008029040AB
:1004B000A0F58051090C01F004018840A0F58043AB
:1004C0001B0CC2F10E0203F00203521AD21A98401A
:1004D00002EBD032D01D2BFA00F101F0010101EB4B
:1004E0004201F161002307F59872736102EB81000C
:1004F00033617A6822FA01F3DC0707D4012303FA97
:1005000001F1114379600660B0611DE002681F29A6
:100510001DBF4908C1F119010BFA01F1594600E06C
:1005200002465068C008C000584516D002F11003BA
:10053000C80F03EB8003490018680028F0D1386920
:10054000834204D31E60B261F660B66001E001F040
:100550009DF809F10800BDE8F68B396990688A4278
:1005600028BF8842F3D3C6609660B060F260002076
:10057000B061EEE72DE9FE4F04468B46A5692E4695
:10058000904699463146FFF711FE0268416802EB3A
:10059000010AAAF1270111F007000EBF0021C1F1E5
:1005A000080101F007010AEB0100A0F12F0706F195
:1005B00010018F4238BF374607F11802002101921F
:1005C0000091A8F1280259462046FFF715FE07F1D1
:1005D000080010F0070F18BF01F058F81B207860D2
:1005E00007F1080104F5E07090E80C5081E80C5028
:1005F000C0F800B0C0F80480C0F80C9081600722F9
:100600000198009900E0001D491C00F108035345C2
:100610004260F8D30129D8BF01F038F8B74200F0A2
:100620009580BF1B301D321DC15949084900D15169
:1006300047F0010070604FEAD70BF751BBF11F0F75
:1006400021D804EBCB0000F12805A846102F38BFB5
:1006500001F01CF8206820FA0BF1CA0705D401212B
:1006600001FA0BF10843206006E0A868216988427E
:100670002CBF804601F00AF8AE60C8F80C60C6F8DE
:100680000880F5606FE0380A08BF002123D0B0F57C
:10069000803F28BF1F211ED2A0F58072120C02F0ED
:1006A00008029040A0F58051090C01F00401884037
:1006B000A0F580431B0CC2F10E0203F00203521A94
:1006C000D21A984002EBD032D01D27FA00F101F087
:1006D000010101EB420104EB8102002302F5987055
:1006E000F16173613361626822FA01F3DB0707D4B9
:1006F000012303FA01F1114361600660B0611DE05E
:1007000002681F291DBF4908C1F1190107FA01F14B
:10071000394600E002465068C008C000B84216D012
:1007200002F11003C80F03EB80034900186800288A
:10073000F0D12069834204D31E60B261F660B560D7
:1007400011E003B0BDE8F04F00F0A0BF0BE021695D
:1007500090688A4228BF8842F3D3C6609560B06033
:10076000F2600020B06103B0BDE8F08F2DE9F041E8
:10077000704F05463868884608B9FFF724FDB96808
:1007800001EB08002F30491E20EA010188457DD287
:1007900005F5D876B06828B1326889188A4275D2D2
:1007A000884273D300F092FF01001CBF0C6811F166
:1007B000010F6BD03068201805F5D872306053688F
:1007C000984238BF18467060A86960BB286908B1B4
:1007D000814200D22961316174610020F0614FF0E3
:1007E000FF303A686A62286205F128020020D26070
:1007F000926002F1080757611761801C10322028AF
:10080000F5D34D48854208BFA4F1280228D055F8F9
:10081000040CC00805EBC002A2F108000A19121A64
:10082000283A01461CE005F5E070024600E09268B7
:100830007AB3136857681F44B942F8D1137B1F0776
:1008400027D4AB691768BB4223D3D2F804C06744EE
:10085000BB421ED2A444C2F804C0E868A9692218A9
:100860002846FFF7C9FC1FE08068C0B103689342C7
:10087000FAD1027B130712D4026801604368E418BE
:10088000446043462846BDE8F041D0E40020BDE87E
:10089000F0812A69914238BF29610A19E5E70023EE
:1008A00022462846FFF766FEE8688045EED2A0EBB8
:1008B0000800A969E86001EB0802AA6140F00100A4
:1008C000506048F00300486001F10800BDE8F08185
:1008D00030B4184B1A6882B94FF480525A604FF402
:1008E00080344FF0FF32DA601A610422124D9C60AE
:1008F0005A61C5F8BC21114A1A6011F1400F17D294
:100900008269AAB1C368283199420BD200F5E0711F
:100910000C68A24203D34D682C44A24202D38968DA
:100920000029F5D1C16999423CBF4FF0FF32C26145
:1009300000F0A8BE20370020F02F00206859883C26
:100940002DE9F84F00258946090AC9F1000B08BFB7
:10095000002323D0B1F5803F28BF1F231ED2A1F56D
:100960008072120C02F008029140A1F580531B0C1A
:1009700003F004039940A1F58044240CC2F10E0257
:1009800004F00204D21A121BA14002EBD132D11D95
:1009900029FA01F303F0010303EB4203074607F5CD
:1009A000987858F8230030B31F2B0FBF4C465C08D3
:1009B000C4F1190409FA04F4AC46594600E0640095
:1009C0004268D208D200A2EB09028A4203D2110087
:1009D000054600F06981426910304FEAD47B50F837
:1009E0002B00002A1CBF824294460028E7D18B4688
:1009F0006046B0BBBDBB012202FA03F35B00584264
:100A0000796803430B4000F04E81584203405B1E5F
:100A1000180B00F01000C340590901F00801CB4049
:100A20009A0802F00402D3405C0804F0020408189B
:100A3000E3401018C3F3400620183044F3401B185D
:100A400058F823000DE008464168C908C900A1EB29
:100A5000090159453CBF8B46054601690029F2D181
:100A600040690028F0D1002D00F01D81B868A0EB8E
:100A70000900834580F0178139698D42C0F01181EA
:100A80006868C008C00009EB0B01884218BF00F07D
:100A9000FDFD05EB0906B54280F00381EC68D5F851
:100AA00018A0AC420CD0A8683969884223D3C26828
:100AB000AA4204BFA168A9421DD1C460A0601CE085
:100AC00005F114010C6834B905F110010C68A4B1EA
:100AD00001E011460C6804F114021068002802BFFE
:100AE00004F1100210680028F3D13869814202D362
:100AF00000220A6001E000F0C9FDBAF1000F36D013
:100B0000E86908EB800001688D4209D1046020008B
:100B100014D1E8697968012282409143796026E026
:100B20003869824508D3DAF81010A94214BFCAF810
:100B30001440CAF8104001E000F0A8FDBCB13869CB
:100B4000844212D3C4F818A0286930B139698842A8
:100B500026BF2061846100F099FD686938B1396968
:100B6000884202D36061846101E000F08FFDBBF137
:100B7000100F0CD2D94449F00300291D6860281DCC
:100B800051F8092042F0010240F8092088E049F0BC
:100B9000030068604BF0010070604FEADB0046F82C
:100BA0000BB01F281DD807EBC00101F128043968DC
:100BB00021FA00F2D307A34605D4012202FA00F07D
:100BC0000843386006E0A068396988422CBF834634
:100BD00000F05CFDA660CBF80C60C6F808B0F460CD
:100BE0005EE05FEA1B2008BF002123D0B0F5803F04
:100BF00028BF1F211ED2A0F58072120C02F008023D
:100C00009040A0F58051090C01F004018840A0F546
:100C100080431B0CC2F10E0203F00203521AD21AD7
:100C2000984002EBD032D01D2BFA00F101F0010107
:100C300001EB4201F16100227261326108EB810037
:100C40007A6822FA01F4E30707D4012404FA01F1D7
:100C5000114379600660B0611DE002681F291DBF65
:100C60004908C1F119010BFA01F1594600E00246A9
:100C70005068C008C000584518D002F11003C80FD2
:100C800003EB8003490018680028F0D138698342DB
:100C900004D31E60B261F660B66001E000F0F6FCBD
:100CA00014E100F0F3FC0EE18B46A2E6396990688E
:100CB0008A4228BF8842F1D3C6609660B060F26075
:100CC0000020B061ECE72DE9F84F064688467168D0
:100CD00048420140491E080B00F01000C1404A097B
:100CE00002F00802D1408B0803F00403D9404D08FC
:100CF00005F002051018E9401818C1F3400428183F
:100D000006F5987A2044E14009185AF821104868FD
:100D1000C008C0000D46A0EB080909E0014648687C
:100D2000C008C000A0EB080048453CBF81460D4606
:100D300008690028F2D149690029F0D1306985425B
:100D4000C0F0BF806968C90808EB090BC9005945A4
:100D500018BF00F09BFC05EB08008542009080F076
:100D6000B080EF68AC69AF420CD0A86831698842A6
:100D700023D3C268AA4204BFB968A9421DD1C76083
:100D8000B8601CE005F114010F6837B905F11001D6
:100D90000F68A7B101E011460F6807F1140210684F
:100DA000002802BF07F1100210680028F3D1306953
:100DB000814202D300220A6001E000F067FC002CAF
:100DC00031D0E8690AEB800001688D4208D10760E4
:100DD0008FB9E8697168012282409143716022E015
:100DE0003069844205D32169A94214BF6761276134
:100DF00001E000F04BFCB7B13069874211D3BC6110
:100E0000286930B13169884226BF3861876100F0B6
:100E10003DFC686938B13169884202D378618761E5
:100E200001E000F033FCB9F1100F0BD24BF00300DE
:100E3000291D6860281D51F80B2042F0010240F87E
:100E40000B203DE048F003012A1D696049F00100D4
:100E500042F80800009941F80990D6F808804FEA56
:100E6000D80BBBF1200F28BF00F010FCB8F1000F29
:100E700022D006EBCB00776900F12804A246B8F136
:100E8000100F38BF00F002FC306820FA0BF1CA07DF
:100E900005D4012101FA0BF10843306006E0A06897
:100EA000316988422CBF824600F0F0FBA760CAF887
:100EB0000C70C7F808A0FC60C6F808900098706134
:100EC00004E000F0E3FB0020BDE8F28F05F108002C
:100ED000BDE8F28F2DE9FE4F0546AFF30080F52DFA
:100EE000DFF89C6780F004810B2D31BF10250B3596
:100EF000ED08ED003068EC08E04010F0030F46D03C
:100F0000C04300F00100041906F1280000EBC408FA
:100F1000E700D8F808506868C008C000B84218BF99
:100F200000F0B4FBD5F80890454508BF00F0AEFBD3
:100F30004D4508BF00F0AAFB6868C008C000B84271
:100F400018BF00F0A3FBC84507D13068012101FAA2
:100F500004F420EA040434600DE03069814508D3CC
:100F6000D9F80C10A94204D1C8F80890C9F80C802F
:100F700001E000F08BFB47F00300291D6860281D8D
:100F8000CA5942F00102C25105F10804F8E0B16803
:100F9000A94280F0BE80002800F0A1804FF0010837
:100FA00008FA04F1490000FA04F4484201430C40F5
:100FB00060420440641E200B00F01000C440610930
:100FC00001F00801CC40A20802F00402D4406308FA
:100FD00003F002030818DC401018C4F34007181887
:100FE0003818FC40241806F1280000EBC40AE7007A
:100FF000DAF80890D9F80400C008C000B84218BF59
:1010000000F044FBD9F808B0D14508BF00F03EFB22
:10101000D94508BF00F03AFBD9F80400C008C00069
:10102000B84218BF00F032FBDA4506D1306808FA42
:1010300004F420EA040434600DE031698B4508D3E0
:10104000DBF80C00484504D1CAF808B0CBF80CA076
:1010500001E000F01BFB7F1B45F0030009F10402D7
:10106000C9F8040047F00101515109EB0502019252
:10107000D751B4684FEAD40ABAF1200F28BF00F064
:1010800005FB34B3CDF800A006F12800756900EB2C
:10109000CA0AD346102C38BF00F0F8FA316800981D
:1010A00021FA00F2D30704D408FA00F008433060B4
:1010B00007E0DAF80800316988422CBF834600F067
:1010C000E5FACAF80850CBF80C50C5F808B0C5F8D6
:1010D0000CA0B76009F108040198706150E07068D5
:1010E000C0B329463046FFF7EEFD040011D047E0BB
:1010F00015F1400F28BF4FF0FF350AD20B35ED0830
:101100007068ED0028B129463046FFF719FC04004D
:1011100036D1B068A8421DD3411B726910290AD389
:1011200050197061B16041F001034360415045F0D6
:10113000030555600BE00021B1607161131D40F0A3
:1011400003015160111D1C5844F001040C5002F1C0
:10115000080415E0F06885420DD2401BB169F060CB
:101160004A19B26140F00100506045F003054D603E
:1011700001F1080404E029463046FFF7F7FA044677
:10118000AFF300802046FFF7EEBA002800D1704789
:101190002DE9F047A0F10805AFF30080DFF8E06427
:1011A00031698D42C0F05982686800F00302012A5B
:1011B00000F05382C2084FEAC209C20705EB0908D2
:1011C00039D42C6810F0030F00F0498260420544C6
:1011D0008D42A144C0F041827069854200F0C68012
:1011E000E408202C5ED2D5F80CA0AF68554508BFA6
:1011F00000F04CFABD4208BF00F048FA6868C00829
:10120000C000B0EBC40F18BF00F040FA06F1280090
:1012100000EBC400874205D031698F423FD3FA68A2
:10122000AA423CD1BA452CD13068012101FA04F41C
:1012300020EA04043460454580F00F82D8F8044069
:10124000E00740F10A82A10700F16881B06980459A
:1012500040F09F80F168B5618944C6F80C9049F070
:101260000100686071698D4202D100207061B06038
:10127000F069484580F0F38100213046FFF728FBF4
:10128000EDE1824506D03069824508D3DAF80810CE
:10129000A94204D1C7F80CA0CAF80870CBE700F047
:1012A000F5F9C8E7EC68AF69AC420BD0A868884292
:1012B00022D3C168A94204BFA268AA421CD1C4605B
:1012C000A0601BE005F11402146834B905F11002A6
:1012D00014689CB101E01A46146804F114031868FC
:1012E000002802BF04F1100318680028F3D18A42D5
:1012F00002D30021116001E000F0C8F9002F9AD05C
:10130000E96906F5987000EB81000268954209D101
:101310000460200011D1E869716801228240914384
:10132000716088E73069874205D33969A94214BFE3
:101330007C613C6101E000F0A9F9002C3FF47BAF37
:1013400031698C42ABD3A761286928B1884226BF96
:101350002061846100F09AF9686900283FF46BAF5E
:10136000316988429BD36061846164E798F8040026
:1013700000F0030003287FF45EAFC6F8089049F040
:101380000101D8F8040040084000C8F80400696072
:101390000AE0706980450AD1B16875618944C6F870
:1013A000089049F00100686045F8099057E1E408A9
:1013B000E400A144E408202C3AD2D8F80CA0D8F8D4
:1013C0000870D04508BF00F061F9B84508BF00F0CB
:1013D0005DF9D8F80400C008C000B0EBC40F18BF16
:1013E00000F054F906F1280000EBC400874207D052
:1013F00031698F42C0F08580FA68424540F08180B3
:10140000BA4507D13068012101FA04F420EA040446
:10141000346078E0824506D03069824571D3DAF8CD
:10142000081041456DD1C7F80CA0CAF808706AE0F1
:10143000D8F80C40D8F8187044450DD0D8F80800FA
:101440003169884223D3C268424504BFA16841453F
:101450001DD1C460A0601CE008F114010C6834B90F
:1014600008F110010C68A4B101E011460C6804F108
:1014700014021068002802BF04F11002106800284E
:10148000F3D13069814202D300220A6001E000F00A
:10149000FDF8002F37D0D8F81C1006F5987000EB37
:1014A0008100026890450AD10460200012D1D8F86A
:1014B0001C007168012282409143716023E0306911
:1014C000874205D33969414514BF7C613C6101E025
:1014D00000F0DCF8BCB131698C4212D3A761D8F8B6
:1014E000100028B1884226BF2061846100F0CEF848
:1014F000D8F8140038B13169884202D36061846140
:1015000001E000F0C3F849F00100686045F8099077
:1015100071698D420BD1C6F80890A0E064086400A0
:10152000C8F8044049F00100686045F809904FEAA6
:10153000D907202F22D206F1280000EBC704A046CD
:10154000B9F1100F38BF00F0A1F8306820FA07F1A8
:10155000CA0705D4012101FA07F70743376006E0FF
:10156000A068316988422CBF804600F08FF8A560E2
:10157000C8F80C50C5F80880EC6070E05FEA1920EC
:1015800008BF002123D0B0F5803F28BF1F211ED205
:10159000A0F58072120C02F008029040A0F5805174
:1015A000090C01F004018840A0F580431B0CC2F136
:1015B0000E0203F00203521AD21A984002EBD03204
:1015C000D01D29FA00F101F0010101EB420106F5FD
:1015D0009872002302EB8100E9616B612B617268F4
:1015E00022FA01F3DC0707D4012303FA01F11143C6
:1015F00071600560A8611DE002681F291DBF4908D0
:10160000C1F1190109FA01F1494600E002465068AA
:10161000C008C000484526D002F11003C80F03EBF4
:101620008003490018680028F0D13069834204D350
:101630001D60AA61ED60AD6001E000F027F8306A3E
:10164000401E30620BD1D6F8C80100E08068002847
:10165000FCD14FF0FF30306201E000F017F8AFF33B
:101660000080BDE8F087316990688A4228BF8842CF
:10167000E3D3C5609560A860EA600020A861DEE75A
:10168000F02F002030BC002070470000012000F047
:1016900033B830B4002513E050F8042BD30744BF0F
:1016A000A9F101039A18091F042942F8045BFAD230
:1016B00013468C0744BF15809B1CC90748BF1D708B
:1016C00050F8041B0029E7D130BC7047074908686F
:1016D00008B1002070470648C008C00008600549EE
:1016E000C908C900091A0160704700BF50380020BE
:1016F000773C0020703E002080B5AFF30080024AA6
:1017000011001820ABBEFBE72600020038B504002C
:101710000D002000C0B2002807D12900C9B289B24B
:10172000DFF8F80A00F0A9FE1EE02000C0B202288F
:1017300007D12900C9B289B2DFF8C00B00F09DFEC5
:1017400012E02000C0B2012807D12900C9B289B235
:10175000DFF8AC0B00F091FE06E02900C9B289B2B7
:10176000DFF8A00B00F089FE31BD10B504002000A9
:10177000C0B2002806D140F22771DFF8A00A00F0BD
:10178000C4FE1BE02000C0B2022806D140F227713F
:10179000DFF8680B00F0B9FE10E02000C0B20128AD
:1017A00006D140F22771DFF8580B00F0AEFE05E0DD
:1017B00040F22771DFF84C0B00F0A7FE10BD10B50A
:1017C00004002000C0B2002806D140F22551DFF805
:1017D0004C0A00F09AFE1BE02000C0B2022806D19D
:1017E00040F22551DFF8140B00F08FFE10E02000CE
:1017F000C0B2012806D140F22551DFF8040B00F0F9
:1018000084FE05E040F22551DFF8F80A00F07DFE85
:1018100010BD10B504002000C0B2002807D101227D
:1018200040F22771DFF8F40900F02FFE1EE02000DF
:10183000C0B2022807D1012240F22771DFF8BC0AAA
:1018400000F023FE12E02000C0B2012807D10122DF
:1018500040F22771DFF8A80A00F017FE06E0012227
:1018600040F22771DFF89C0A00F00FFE10BD10B5A2
:1018700004002000C0B2002807D1002240F22771E6
:10188000DFF8980900F001FE1EE02000C0B2022837
:1018900007D1002240F22771DFF8600A00F0F5FD61
:1018A00012E02000C0B2012807D1002240F22771C7
:1018B000DFF84C0A00F0E9FD06E0002240F2277153
:1018C000DFF8400A00F0E1FD10BD0100C9B20029B7
:1018D00006D1DFF8341A0A8852F010020A801BE0A1
:1018E0000100C9B2022906D1DFF81C1A0A8852F495
:1018F00080620A8010E00100C9B2012906D1DFF838
:101900000C1A0A8852F480520A8005E0DFF8001AA7
:101910000A8852F400720A8070470100C9B2002997
:1019200006D1DFF8F0190A8852F010020A801BE095
:101930000100C9B2022906D1DFF8D8190A8852F489
:1019400080620A8010E00100C9B2012906D1DFF8E7
:10195000C8190A8852F480520A8005E0DFF8BC19E1
:101960000A8852F400720A807047000038B52DEDE5
:10197000028B88B00121082000F0C8FE0121082058
:1019800000F0C4FE01215FF4003000F0CFFE022021
:101990008DF8080002208DF8090000208DF80A005B
:1019A00001208DF80B0060200190DFF8744901A937
:1019B000200000F0E7FE07220521200000F059FF7B
:1019C00007220621200000F054FF4FF496400390B8
:1019D0000020ADF810000020ADF812000020ADF896
:1019E00014000020ADF818000C20ADF81600DFF848
:1019F0002C5803A9280000F0BFFC9FEDD48ABDEE4F
:101A0000C80A10EE100A010089B200EE101AB8EEF2
:101A1000400A38EE400ABFEE460A10EE104A0001B6
:101A20002018DFF8001908800121280000F016FDB9
:101A3000012240F22551280000F027FD26208DF8D4
:101A4000000008208DF8010000208DF80200012020
:101A50008DF80300684600F042FF08B0BDEC028B31
:101A600031BD000038B52DED028B88B00121082072
:101A700000F04CFE0121082000F048FE01215FF437
:101A8000802000F053FE02208DF8080002208DF81F
:101A9000090000208DF80A0001208DF80B004FF49A
:101AA00040700190DFF8784801A9200000F06AFE3C
:101AB00007220821200000F0DCFE07220921200077
:101AC00000F0D7FE4FF4964003900020ADF81000D0
:101AD0000020ADF812000020ADF814000020ADF891
:101AE00018000C20ADF81600DFF8105803A92800E4
:101AF00000F042FC9FED958ABDEEC80A10EE100A78
:101B0000010089B200EE101AB8EE400A38EE400A21
:101B1000BFEE460A10EE104A00012018DFF8081840
:101B200008800121280000F099FC012240F2255193
:101B3000280000F0AAFC27208DF8000008208DF86E
:101B4000010000208DF8020001208DF80300684696
:101B500000F0C5FE08B0BDEC028B31BD38B52DEDEF
:101B6000028B88B00121102000F0D0FD012110204F
:101B700000F0CCFD01215FF4002000F0D7FD022031
:101B80008DF8080002208DF8090000208DF80A0069
:101B900001208DF80B004FF440600190DFF88C4776
:101BA00001A9200000F0EEFD08220A21200000F02B
:101BB00060FE08220B21200000F05BFE4FF49640EF
:101BC00003900020ADF810000020ADF812000020B6
:101BD000ADF814000020ADF818000C20ADF8160088
:101BE000DFF81C5703A9280000F0C6FB9FED578AB9
:101BF000BDEEC80A10EE100A010089B200EE101AFC
:101C0000B8EE400A38EE400ABFEE460A10EE104A1F
:101C100000012018DFF8181708800121280000F0C3
:101C20001DFC012240F22551280000F02EFC34203A
:101C30008DF8000008208DF8010000208DF80200CA
:101C400001208DF80300684600F049FE08B0BDECA5
:101C5000028B31BD38B52DED028B88B001211020EB
:101C600000F054FD0121102000F050FD01215FF033
:101C7000004000F05BFD02208DF8080002208DF886
:101C8000090000208DF80A0001208DF80B000320C8
:101C90000190DFF8A04601A9200000F073FD0822A2
:101CA0000121200000F0E5FD08220021200000F0C5
:101CB000E0FD4FF4964003900020ADF810000020A6
:101CC000ADF812000020ADF814000020ADF81800A7
:101CD0000C20ADF81600DFF82C5603A9280000F000
:101CE0004BFB9FED1A8ABDEEC80A10EE100A0100E8
:101CF00089B200EE101AB8EE400A38EE400ABFEE84
:101D0000460A10EE104A00012018DFF82C16088051
:101D10000121280000F0A2FB012240F225512800F9
:101D200000F0B3FB53208DF8000008208DF801006F
:101D300000208DF8020001208DF80300684600F0B5
:101D4000CEFD08B0BDEC028B31BD0000007C12431B
:101D50001CB50121082000F0D9FC0121082000F069
:101D6000D5FC0121042000F0D1FC0121022000F06B
:101D7000CDFC01208DF8040002208DF80500002024
:101D80008DF8060001208DF8070010200090DFF884
:101D900090456946200000F0F5FC4FF4806000900B
:101DA0006946200000F0EEFC4FF480500090694638
:101DB000DFF8780500F0E6FC4FF40070009069460B
:101DC000DFF8780500F0DEFC0020FFF7A6FD02201A
:101DD000FFF7A3FD0120FFF7A0FD0320FFF79DFD06
:101DE00013BD80B5FFF7C2FDFFF73CFEFFF7B6FE5F
:101DF000FFF730FFFFF7ACFF01BD2DE9FC410020EC
:101E0000FFF7DDFC002828D0DFF8104440F225550C
:101E10002900200000F0AEFB200000F032FBADF8FE
:101E2000020000208DF8000001260DF10207E846AF
:101E300032003900404600F09BFDDFF804050078D1
:101E4000062805DB9DF80010DFF8F80401F00BF818
:101E500001222900200000F018FB0020FFF785FC7C
:101E6000002827D0DFF8E044DFF8E004007821788C
:101E7000884217D3DFF8C8040078062807DBDFF8AC
:101E8000D0042178415CDFF8CC0400F0ECFF20782E
:101E9000411C2170DFF8B814C0B2095C0020FFF7C4
:101EA00035FC07E00020FFF7E2FC0020FFF735FDDE
:101EB00000202070BDE8F3812DE9FC410220FFF7EE
:101EC0007EFC002828D0DFF8344440F22555290054
:101ED000200000F04FFB200000F0D3FAADF8020024
:101EE00000208DF8000001260DF10207E8463200BF
:101EF0003900404600F03CFDDFF844040078062835
:101F000005DB9DF80010DFF8500400F0ACFF012263
:101F10002900200000F0B9FA0220FFF726FC002873
:101F200027D0DFF82444DFF82404007821788842A1
:101F300017D3DFF80C040078062807DBDFF810045D
:101F40002178415CDFF8140400F08DFF2078411CFB
:101F50002170DFF8FC13C0B2095C0220FFF7D6FB4A
:101F600007E00220FFF783FC0220FFF7D6FC0020E9
:101F70002070BDE8F3812DE9FC410120FFF71FFC33
:101F8000002828D0DFF8784340F2255529002000AA
:101F900000F0F0FA200000F074FAADF80200002022
:101FA0008DF8000001260DF10207E84632003900E5
:101FB000404600F0DDFCDFF888030078062805DBEA
:101FC0009DF80010DFF8980300F04DFF0122290072
:101FD000200000F05AFA0120FFF7C7FB002824D0A8
:101FE000DFF86443DFF8640300782178884214D373
:101FF000D3480078062806DBD5482178415CDFF815
:10200000640300F030FF2078411C2170D049C0B239
:10201000095C0120FFF77AFB07E00120FFF727FCAE
:102020000120FFF77AFC00202070BDE8F3812DE944
:10203000FC410320FFF7C3FB002825D0B14C40F240
:1020400025552900200000F095FA200000F019FA2B
:10205000ADF8020000208DF8000001260DF1020706
:10206000E84632003900404600F082FCB44800786F
:10207000062804DB9DF80010BB4800F0F4FE0122A6
:102080002900200000F001FA0320FFF76EFB002872
:1020900021D0AD4CAD4800782178884213D3A848B0
:1020A0000078062805DBAA482178415CAF4800F09B
:1020B000DAFE2078411C2170A549C0B2095C0320DA
:1020C000FFF724FB07E00320FFF7D1FB0320FFF716
:1020D00024FC00202070BDE8F3812DE9F8430400C2
:1020E0000D0016003700A846DFF864923A0041461A
:1020F000484600F03DFC954806702000C0B2FFF74E
:10210000E4FB2000C0B2FFF784FBBDE8F1832DE9BA
:10211000FE4304000D000026684600210022002333
:1021200080E80E002F00FFB2A046E9463A00414683
:10213000484600F01DFC012108002A00C0B2D2B2BE
:10214000904206D268460A00D2B2805C8619491CC9
:10215000F2E73000C0B2BDE8FE831CB5040068465B
:1021600000210160C5208DF8000001208DF80100DC
:1021700001208DF8020004216846FFF7C8FF8DF8A2
:102180000300042269462000C0B2FFF7A6FF13BD7A
:102190003EB504000D00684600210022C0E900128F
:1021A000C5208DF800006946022048702800C0B2A2
:1021B000642290FBF2F302FB1300002801D01020F0
:1021C00000E0012088702800C0B20A2290FBF2F0E3
:1021D0000A2290FBF2F302FB13008DF803002800A3
:1021E000C0B20A2290FBF2F302FB13000871062131
:1021F0006846FFF78CFF8DF805000622694620002F
:10220000C0B2FFF76AFF2000C0B2042803DA5848C2
:102210002100C9B2455437BD000000000044004011
:1022200010B40100FF2068221300DBB20E2B09DB83
:102230000B00DBB21400E4B20D3CA34200DA400014
:102240000D3AF1E7C0B210BC704701000020002237
:10225000082A05DA4B084041C9B24908521CF7E781
:10226000C0B27047FEB504000D0068460021002290
:10227000C0E900122800C0B2FFF7D2FF060030000C
:10228000C0B2FFF7E2FF0700C5208DF800006846E6
:10229000032141703100C9B2490811F040017200B8
:1022A00012F08002114351F0200181703900C9B24F
:1022B000890851F04001C17000208DF8040006210A
:1022C0006846FFF724FF8DF80500062269462000C6
:1022D000C0B2FFF702FFF7BD10B504002000C0B286
:1022E000042803DA2248E4B2005D05E02100C9B207
:1022F000204800F0B8FD002010BD0000004800405C
:10230000004C0040007C0040180C024018080240BD
:10231000180402401A0C02401A0802401A04024033
:10232000000C0240084400400848004000080240F9
:10233000084C004000100240087C004000040240AD
:10234000300000205CA200085C3800205D380020CE
:10235000AC3700206CA200087CA200088CA2000808
:102360009CA20008ACA20008BCA20008CCA20008F5
:10237000C8370020DCA200082DE9F04F85B004002A
:102380000D00002600275FF000085FF00009A88913
:102390000028218A31F44051E888014300910098D7
:1023A0002082B4F80CA02C4810EA0A0AA9882889CF
:1023B00001436889014351EA0A0AA4F80CA0B4F861
:1023C00014B03BF4407BA88950EA0B0BA4F814B07E
:1023D00001A800F0E3F81E48844202D01D48844260
:1023E00001D1049900E00399A089000407D51920C0
:1023F00000FB01F02A685200B0FBF2F206E019205F
:1024000000FB01F02A689200B0FBF2F26420B2FBFC
:10241000F0F6360133001B09642000FB1323A0896A
:10242000000408D5D80032306427B0FBF7F010F074
:102430000700064307E0180132306427B0FBF7F0CD
:1024400010F00F000643268105B0BDE8F08F0000B4
:102450000010014000140140F3E9FFFF0A00D2B26E
:10246000002A04D0828952F40052828104E08389D8
:102470004DF6FF72134083817047CA05D20D8280EA
:1024800070478088C005C00D70472DE9F0410023DA
:10249000002500275FF0000E0C0040F66A16A4B27B
:1024A000B44280460C00E4B26409E4B20E00B6B255
:1024B00016F01F065FF0010C1CFA06FC012C02D17D
:1024C00018F10C0806E0022C02D118F1100801E006
:1024D00018F114081300DBB2002B06D0D8F8003036
:1024E0005CEA0303C8F8003005E0D8F8003033EAAE
:1024F0000C03C8F80030BDE8F0810A0092B29205E2
:102500000A0092B2D24302807047F0B40400002760
:102510000020002200260B0040F66A159BB2AB4259
:102520000D00EDB26D09EDB20B009BB213F01F036D
:102530005FF0010C1CFA03F3012D02D1A0890340C6
:1025400006E0022D02D1208A034001E0A08A034068
:102550000A0092B2120A92B21CFA02F220880240D9
:10256000002B03D0002A01D0012000E00020C0B2DF
:10257000F0BC704770B4002200240B0040F66A15CE
:102580009BB2AB420B009BB21B0A01259D402E0063
:10259000B6B2F643068070BC70473F002DE9F84F95
:1025A0000100002200230024022500200226022729
:1025B000DFF8B0E1DEF8008018F00C08C446BCF18A
:1025C000000F09D0BCF1040F0AD0BCF1080F0BD0EA
:1025D000BCF10C0F38D067E0DFF890210A6066E0AC
:1025E000DFF88C210A6062E0DFF87CC1DCF80020B3
:1025F000C2F380521000DCF8002012F03F021600F7
:1026000000280BD0DFF86821B2FBF6F9DCF80020D7
:10261000C2F3881202FB09F94C460AE0DFF84C21AC
:10262000B2FBF6F9DCF80020C2F3881202FB09F9CC
:102630004C46DCF80020C2F30142521C5200150047
:10264000B4FBF5F20A6032E0DFF81CC1DCF80020D0
:10265000C2F380521000DCF8002012F03F02160096
:1026600000280BD0DFF80821B2FBF6F9DCF80020D7
:10267000C2F3881202FB09F94C460AE0DFF8EC20AD
:10268000B2FBF6F9DCF80020C2F3881202FB09F96C
:102690004C46DCF80020C2F30272521C52001700B4
:1026A000B4FBF7F20A6002E0DFF8C0200A60DEF84F
:1026B000002012F0F00212090092DFF8B8A0009A90
:1026C0001AF80220D1F800C03CFA02FCC1F804C09C
:1026D000DEF8009019F4E0595FEA99291AF809C068
:1026E000D1F804B03BFA0CFBC1F808B0DEF800E00A
:1026F0001EF4604E5FEA5E3E1AF80EA0D1F804B0F8
:102700003BFA0AFBC1F80CB0BDE8F18F0A00D2B267
:10271000002A05D0DFF8602013680343136004E04B
:10272000DFF8542013688343136070470A00D2B265
:10273000002A04D0114A13680343136003E00F4AD0
:1027400013688343136070470A00D2B2002A04D092
:102750000B4A13680343136003E0094A1368834379
:102760001360704708380240043802400024F40027
:1027700000127A0020000020303802404038024029
:1027800044380240F0B50022002300240025102D1B
:102790005CD2012616FA05F213000A681A401400EA
:1027A0009C4251D103270268AC465FFA8CFC5FEA79
:1027B0004C0C17FA0CFC32EA0C020260D0F800C094
:1027C00091F804E02A00D2B252001EFA02FE5EEA3C
:1027D0000C0CC0F800C00A79012A02D00A79022A3A
:1027E00022D18268AC465FFA8CFC5FEA4C0C17FA87
:1027F0000CFC32EA0C028260D0F808C091F805E0C7
:102800002A00D2B252001EFA02FE5EEA0C0CC0F898
:1028100008C04268AE4032EA0606466042688E79D9
:10282000AE40B6B232434260C6682A00D2B252000D
:10283000974036EA0707C760C668CF792A00D2B248
:10284000520097403E43C6606D1CA0E7F0BD10B437
:102850000200002310690C00A4B2204201D0012024
:1028600000E00020C0B210BC704701837047418374
:102870007047F0B5002400251300DBB211F0070605
:10288000F6B2B60013FA06F60B009BB2DB1000EBB3
:1028900083070B009BB2DB1000EB8303D3F820C04F
:1028A0005FF00F0E11F00703DBB29B001EFA03FE70
:1028B0003CEA0E0CC7F820C00B009BB2DB1000EB0B
:1028C00083031B6A33430F00BFB2FF1000EB87077F
:1028D0003B62F0BD1F4901431F4A11607047F0B4CD
:1028E000002200230F24C178002920D01A4909684A
:1028F00011F4E061D1F5E061090AD1F104052B0082
:10290000E4B20C4145789D408678264035432D0140
:102910002A00124D0678AA550125067816F01F06E2
:10292000B5400F4E07787F1146F8275009E0012186
:10293000057815F01F05A9400A4D0678761145F86F
:102940002610F0BC7047084A0A400243074B1A6041
:10295000704700000000FA050CED00E000E400E024
:1029600000E100E080E100E080FFFF1F08ED00E0F3
:1029700062B38B0708D0521E11F8013B00F8013BEF
:1029800000F024808B07F6D1830740F0208000BF41
:10299000103A07D330B4B1E83810103AA0E8381034
:1029A000F9D230BC530724BFB1E80810A0E80810E2
:1029B00044BF51F8043B40F8043BD20724BF31F830
:1029C000022B20F8022B44BF0B7803707047121FB4
:1029D00017D35B0009D151F8043B20F8023B1B0CD4
:1029E000121F20F8023BF6D20BE051F8043B00F82E
:1029F000013B1B0A20F8023B1B0C121F00F8013B95
:102A0000F3D238BF121D521E24BF11F8013B00F84B
:102A1000013BF8D87047680010B500F077FB00F074
:102A200065FC00F01DFB0020DFF878160870002020
:102A3000DFF8741608700020DFF870160860DFF801
:102A4000701600200870087805280ADA0022DFF8DE
:102A500064360C78802044431A550878401C08706E
:102A6000F1E7002008700878DFF84C16087000F0D5
:102A7000E1FC10BD2DE9F14300249DF8000003287E
:102A80001FD004281DD008280ED00A2824D00D28D5
:102A900022D01B2847D0412845D0422843D05B286C
:102AA00041D07F2840F0C380DFF80006016801298B
:102AB00006DB0168491E0160032195A000F057FC68
:102AC000C6E00020DFF8E41508600220DFF8D41526
:102AD000087001200400BBE0DFF8E00500780D2855
:102AE00003D19DF800000A281CD0DFF8C0552E68DD
:102AF000DFF8CC75DFF8CC85C14632003900484696
:102B0000FFF736FF0020296808F801000020286040
:102B10000120DFF890150870012004000121A6A013
:102B200000F025FC94E0DFF880552878002803D0D9
:102B3000022824D019D379E09DF800001B2802D187
:102B40000120287010E0DFF8640501687F290BDAA6
:102B500001684A1C02609DF80000DFF864255054AB
:102B60000121684600F003FC60E09DF800005B284E
:102B700002D10220287001E00020287056E09DF864
:102B8000000041280AD1DFF830050178091D05222F
:102B900091FBF2F302FB131101700DE09DF80000B0
:102BA000422809D1DFF810050178491C052291FB64
:102BB000F2F302FB131101709DF80000412803D0CD
:102BC0009DF8000042282FD1DFF8E0743868411EDC
:102BD0003960002804D003214DA000F0C8FBF3E7C2
:102BE000DFF8D064DFF8D08498F8001080204143EB
:102BF00006EB010000F066FC3860396898F80020A8
:102C00008020424306EB020000F0B1FB3F6898F8D9
:102C10000010C9B2802041430E44DFF8A4843A007A
:102C200031004046FFF7A4FE0020287010E0DFF8D6
:102C30007C0401687F290BDA01684A1C02609DF858
:102C40000000DFF87C2450540121684600F08FFB1F
:102C50009DF80000DFF8641408702000C0B2BDE8E1
:102C6000F28338B5DFF83C14087800284DD0087896
:102C7000012843D100200870DFF84854280000F0F4
:102C800049F8280000F09AF8040014F1030F05D168
:102C9000DFF8340400F0E7F8002037E014F1010F0A
:102CA0000DD100200400285D002801D1641CFAE742
:102CB00005EB0401DFF8140400F0D5F816E014F178
:102CC000020F04D1DFF8080400F0CDF80EE0102C5C
:102CD00001D100201AE0142C01D1142016E0002CA0
:102CE00004D02100DFF8EC0300F0BDF832A000F0C2
:102CF000BAF8DFF8D40300F0B6F806E00878022846
:102D000003D100200870142000E0002032BD000034
:102D10000820080030B401000022885C002807D099
:102D2000885C202802D0885C092801D1521CF4E775
:102D30001144087800283CD000200200802A0FD2DD
:102D4000885C00280CD0DFF86C33DFF8640304786B
:102D50008020444303EB04008B5C8354521CEDE75A
:102D6000802A0BD2DFF84C33DFF84403047880204C
:102D7000444303EB0400002383540CE0DFF83433B6
:102D8000DFF82C0304788020444303EB0400104454
:102D9000002300F8013CDFF8180303785B1C0524CE
:102DA00093FBF4F504FB153303700078DFF8083368
:102DB000187030BC704700000A0000002DE9F8438D
:102DC000060001240020092806DA0021DFF8082384
:102DD00042F82010401CF6E700253700387800281C
:102DE0001AD03878202802D03878092804D1002059
:102DF0003870012004000DE0002C0BD0082D06DAFD
:102E0000B54840F825706D1C0020040002E07FF0FA
:102E1000010021E07F1CE1E7002D1BD0DFF8BC8220
:102E2000D8F80000002812D0DFF8AC92D8F80010D3
:102E3000D9F8000000F062FB002805D149462800BF
:102E4000D8F80420904707E018F10C08E8E75FF095
:102E5000FF3001E07FF00200BDE8F28380B59A48C0
:102E600000F001F801BD0EB42DE9F04F86B08246A6
:102E70000DF13C0B9AF80000002800F0EC800020D7
:102E800006001AF80600252805D01AF806000028C2
:102E900001D0761CF5E73100504600F068FAB244E4
:102EA0009AF800002528E5D11AF1010A0020040053
:102EB00020208146504610F1010A0078253800F0A4
:102EC000BF800B3809280ED9283864D00B3819D0A8
:102ED000401E21D00C385ED0C01E32D0801E4ED095
:102EE000C01E58D0B2E01AF8010C302803D1002CD3
:102EF00001D1302081460A2044431AF8010C3038B1
:102F00000419D7E7DBF800001BF1040B0090012146
:102F1000684600F02CFAADE7DBF800001BF1040B6B
:102F20000090002007000098002805D50098404236
:102F300000900120050001E0002005000A208046E5
:102F400034E0DBF800001BF1040B019000200600C8
:102F50000198805D002801D0761CF9E731000198C6
:102F600000F005FAA64209D2A41B2000441E002846
:102F700004D0012149A000F0FAF9F6E77AE7DBF87E
:102F800000001BF1040B0090002007000A2080467F
:102F9000002005000AE0DBF800001BF1040B0090A4
:102FA00000200700102080460020050001200600B8
:102FB000009808FB06F1884209D308FB06F0B0FB35
:102FC000F8F0B04203D108FB06F6641EF0E7002DCE
:102FD00000D0641E002D09D04846C0B2302805D16B
:102FE0002D2002A9C8557F1C00200500022C0AD301
:102FF000102C08D2641E002C05D002A800F80790FF
:103000007F1C641EF7E7002D03D02D2002A9C855B0
:103010007F1C002E0FD00098B0FBF6F0B0FBF8F14B
:1030200008FB11002E490968085C02A9C8557F1CDD
:10303000B6FBF8F6EDE7390002A800F098F919E7B9
:103040000121BAF1010000F092F913E705212548AA
:1030500000F08DF90EE706B0BDE8F00F5DF810FB4B
:1030600080B52148FFF7FFFE20492148FFF7FBFE0E
:103070002048C18800918388428801881E48FFF754
:10308000F2FE1E48FFF7EFFE1D491E48FFF7EBFE5C
:1030900003A0FFF7E8FEFFF7E1FE01BD20000000FE
:1030A0000A0A00005E38002060380020CC3700207B
:1030B00061380020702B0020623800205F3800202B
:1030C000C035002040360020B8A50008909E0008BA
:1030D000F0970008349A0008FC360020949100080C
:1030E00078A60008C0A5000890A00008A4A00008C9
:1030F000689D0008B0A50008A89E0008409C000834
:10310000849D0008C8A500087047704738B52DEDAC
:10311000028B88B001210420FFF7F8FA0121042076
:10312000FFF7F4FA01212020FFF70EFB02208DF8B3
:10313000080002208DF8090000208DF80A00012007
:103140008DF80B00C02001902D4C01A92000FFF745
:1031500019FB082206212000FFF78BFB082207211C
:103160002000FFF786FB5FF4E13003900020ADF80C
:1031700010000020ADF812000020ADF8140000206F
:10318000ADF818000C20ADF816001E4D03A928005C
:10319000FFF7F2F89FED198ABDEEC80A10EE100A8B
:1031A000010089B200EE101AB8EE400A38EE400A6B
:1031B000BFEE460A10EE104A00012018124908809E
:1031C00001212800FFF74AF9012240F22551280089
:1031D000FFF75BF947208DF8000007208DF801000C
:1031E00000208DF8020001208DF803006846FFF7EB
:1031F00076FB08B0BDEC028B31BD000000504342AD
:1032000000080240001401400814014080B5FFF797
:103210007BFF00F076F8FFF778FF01BD0160531ED9
:103220004360002383600023C36070478168C068E7
:10323000814201D1012000E00020C0B270470100AE
:1032400088684A681018CA68801A49680840704738
:1032500010B48368C468641C42681440A34207D059
:103260000268C368D154C3685B1C42681340C360E2
:1032700010BC7047020010689168405C93685B1C4A
:1032800051680B409360C0B270476448008810F0EA
:10329000200070476148008810F080007047604847
:1032A0000088C0B270470100C9B25D4A1180704702
:1032B00080B540F227715948FFF727F902BD80B564
:1032C00040F225515548FFF720F902BD80B5012293
:1032D00040F227715148FFF7D8F801BD80B50022B0
:1032E00040F227714D48FFF7D0F801BD80B50020AE
:1032F0004C4908704FF400724B494C48FFF78EFF61
:1033000001BD38B50024FFF7D3FF002817D0FFF721
:10331000C1FF00280CD0454D2800FFF787FF00288B
:1033200006D12800FFF7A6FFC0B2FFF7BCFFEEE70B
:103330003E48FFF77BFF002801D0FFF7CFFFFFF7E4
:10334000BEFF002812D0FFF7A0FF002808D0FFF72B
:10335000A6FFC0B236490968884720430400F2E757
:103360002000C0B2002801D000F08DF831BDF8B5C2
:1033700004000D002B480078002835D12B4F380071
:10338000FFF75DFFA84200DA05000026AE420CDA26
:10339000A05D0A2803D10D213800FFF759FFA15D78
:1033A0003800FFF755FF761CF0E73800FFF73EFFC7
:1033B00000282FD1FFF792FFFFF76CFF00280BD0FA
:1033C0003800FFF733FF002806D13800FFF752FF1F
:1033D000C0B2FFF768FFEFE73800FFF727FF0028CC
:1033E00018D1FFF773FF15E00026AE4212DAA05D98
:1033F0000A2806D1FFF74EFF0028FBD00D20FFF76B
:1034000052FFFFF747FF0028FBD0A05DFFF74BFFFF
:10341000761CEAE73000F2BD000000000014014015
:103420000414014065380020F02D00209C37002056
:1034300074A60008F8B503220021012000F0CCF8A2
:103440001C49086000200390002002900020019099
:103450000520009000234FF4807217490FF20900F5
:1034600000F0B8FB05B000BD10B5040000235FF00C
:10347000FF3200210F48006800F019FA0128F5D149
:10348000FFF7EFFBF2E710B50C4C2100094800688C
:1034900000F0B3F9206801280AD12068002807D07D
:1034A0005FF0805006490860BFF34F8FBFF36F8F06
:1034B00010BD0000D0370020D0A50008D437002070
:1034C00004ED00E000F10103810704D010F8011BB6
:1034D000820781B1FAD10268A2F10131914311F062
:1034E000803104BF50F8042FF6E709BAB1FA81F130
:1034F00000EBD100401CC01A7047080081EA0003AD
:103500009B0717D1820707D010F8012B11F8013B58
:10351000BAB19A42F6D014E002680B689A42A2F15E
:10352000013301BF934313F0803F50F8042F51F84B
:10353000043FF3D010F8012B11F8013B0AB19A4275
:10354000F8D0D01A7047000070B506000C003500A6
:10355000002D07D1502080F31188BFF34F8FBFF3A8
:103560006F8FFEE701F06BF92968EA6B286C424324
:1035700001EB020068600020A8632868A860296841
:10358000EA6B521E286C424301EB0200E8605FF0D8
:10359000FF306864A864002C12D12869002817D075
:1035A00015F1100000F066FE012811D15FF0805087
:1035B000DFF81C160860BFF34F8FBFF36F8F07E073
:1035C00015F1100001F0D6F915F1240001F0D2F93F
:1035D00001F04FF9012070BD2DE9F04705000C0006
:1035E00090460026002D07D1502080F31188BFF3AC
:1035F0004F8FBFF36F8FFEE7002C02D15FF0000A00
:1036000003E004FB05FA1AF1010A1AF1540001F073
:10361000FFF90700002F14D0B946002C02D1C9F8D9
:10362000009003E017F15400C9F80000C9F83C50BD
:10363000C9F8404001214846FFF786FF89F85080CD
:103640004E46002E07D1502080F31188BFF34F8FD4
:10365000BFF36F8FFEE73000BDE8F0872DE9F74339
:1036600080460D00994600244646002E07D1502082
:1036700080F31188BFF34F8FBFF36F8FFEE7002DEC
:1036800002D1306C002801D1012000E00020C0B23E
:10369000002807D1502080F31188BFF34F8FBFF36C
:1036A0006F8FFEE7B9F1020F02D1F06B012801D153
:1036B000012000E00020C0B2002807D1502080F394
:1036C0001188BFF34F8FBFF36F8FFEE700F052FFFB
:1036D000002802D10298002801D1012000E000203A
:1036E000C0B2002807D1502080F31188BFF34F8F5C
:1036F000BFF36F8FFEE701F0A2F8B06BF16B884269
:1037000002D3B9F1020F27D14A462900300000F058
:10371000A4F90700706A00280FD016F1240000F009
:10372000A9FD012814D15FF08050DFF8A4140860CF
:10373000BFF34F8FBFF36F8F0AE0002F08D05FF009
:103740008050DFF88C140860BFF34F8FBFF36F8F8A
:1037500001F08FF801204EE00298002803D101F01B
:1037600088F8002047E0002C04D1684600F0C1FD35
:103770000120040001F07DF800F00AFC01F05FF880
:10378000706C10F1010F01D100207064B06C10F169
:10379000010F01D10020B06401F06BF802A9684666
:1037A00000F0BAFD002820D1300000F002FA002815
:1037B00015D0029916F1100000F026FD300000F03F
:1037C000B7F900F0EBFB002895D15FF08050DFF8EF
:1037D00000140860BFF34F8FBFF36F8F8BE730008B
:1037E00000F0A6F900F0DAFB85E7300000F0A0F960
:1037F00000F0D4FB0020BDE8FE83F8B506000C0005
:103800003500002D07D1502080F31188BFF34F8F72
:10381000BFF36F8FFEE7286C002807D0502080F39D
:103820001188BFF34F8FBFF36F8FFEE72868002822
:1038300002D16868002801D1012000E00020C0B258
:10384000002807D1502080F31188BFF34F8FBFF3BA
:103850006F8FFEE701F03AF8EFF31187502080F305
:103860001188BFF34F8FBFF36F8FA86BE96B88424E
:1038700019D2A86B401CA863A86C10F1010F0DD1E0
:10388000686A00280DD015F1240000F0F3FC002830
:1038900007D0002C05D00120206002E0A86C401C5D
:1038A000A864012000E0002087F31188F2BD2DE913
:1038B000F74380460D001E0000244746002F07D125
:1038C000502080F31188BFF34F8FBFF36F8FFEE757
:1038D000002D02D1386C002801D1012000E0002029
:1038E000C0B2002807D1502080F31188BFF34F8F5A
:1038F000BFF36F8FFEE700F03DFE002802D1029873
:10390000002801D1012000E00020C0B2002807D12A
:10391000502080F31188BFF34F8FBFF36F8FFEE706
:1039200000F08DFFB86B00283BD0D7F80C90290031
:10393000380000F0E2F8002E1BD1B86B401EB863CF
:103940003868002802D100F0CEFE7860386900287F
:1039500023D017F1100000F08DFC01281DD15FF07D
:103960008050DFF86C120860BFF34F8FBFF36F8F8A
:1039700013E0C7F80C90786A00280ED017F12400E5
:1039800000F078FC002808D05FF08050DFF840128B
:103990000860BFF34F8FBFF36F8F00F06AFF012005
:1039A00059E00298002803D100F063FF002052E0A4
:1039B000002C04D1684600F09CFC0120040000F0BB
:1039C00058FF00F0E5FA00F03AFF786C10F1010FB3
:1039D00001D100207864B86C10F1010F01D10020F2
:1039E000B86400F046FF02A9684600F095FC002884
:1039F0002BD1380000F0CFF8002820D038680028FC
:103A000006D100F01CFF786800F0C6FD00F031FF21
:103A1000029917F1240000F0F7FB380000F088F855
:103A200000F0BCFA00287FF47BAF5FF08050DFF835
:103A3000A0110860BFF34F8FBFF36F8F70E738009E
:103A400000F076F800F0AAFA6AE7380000F070F8A3
:103A500000F0A4FA0020BDE8FE832DE9F047050040
:103A60000E0014000027286C002809D128680028BF
:103A70003DD1686800F0DEFD07000020686036E098
:103A8000002C14D1D5F84080B146D5F808A04246A4
:103A900049465046FEF76CFFA868296C0844A860A8
:103AA000A8686968884222D32868A8601FE0D5F812
:103AB0004080B146D5F80CA0424649465046FEF734
:103AC00057FFE868296C49420844E860E8682968BB
:103AD000884204D26868296C49420844E860022C94
:103AE00005D1A86B002802D0A86B401EA863A86B64
:103AF000401CA8633800BDE8F0872DE9F0410400C0
:103B00000D00206C002811D0E068216C0844E060B2
:103B1000E0686168884201D32068E060266CE7684D
:103B2000A846320039004046FEF722FFBDE8F0818A
:103B300038B5040000F083FEA06C01280EDB606A3B
:103B400000280BD014F1240000F094FB002801D0D1
:103B500000F022FCA06C401EA064EDE75FF0FF3592
:103B6000A56400F086FE00F06AFE606C01280EDBA2
:103B7000206900280BD014F1100000F07BFB002816
:103B800001D000F009FC606C401E6064EDE76564E4
:103B900000F06FFE31BD38B5040000F050FEA06BA0
:103BA000002801D1012500E0002500F062FE280078
:103BB00032BD38B5040000F042FEA06BE16B8842D4
:103BC00001D1012500E0002500F053FE280032BDA0
:103BD00004ED00E02DE9FB4F82B006001700DDF890
:103BE00038800F9CDDF84090DDF844A030000028BC
:103BF00007D1502080F31188BFF34F8FBFF36F8F31
:103C0000FEE7B8F1080F07D3502080F31188BFF307
:103C10004F8FBFF36F8FFEE74946380080B200F048
:103C200061FC0500002D61D0286B390089B200EBE2
:103C30008100001FC008C0000190019810F0070F1C
:103C400007D0502080F31188BFF34F8FBFF36F8FE1
:103C5000FEE7380080B200905346424603992800A0
:103C600000F0BAFB049A3100019800F067FD28606B
:103C7000002C00D0256000F0E2FDDFF84C1708684A
:103C8000401C0860DFF844271068002806D1156042
:103C9000086801280CD100F0D5FB09E0DFF83007F7
:103CA0000068002804D11068C06A804500D3156000
:103CB000DFF820070168491C016000686864DFF8CC
:103CC000CC170A680123E86A83401A430A60291D59
:103CD000DFF8FC27EB6A1420434302EB030000F0FB
:103CE0005BFE5FF0010B00F0C4FD01E05FF0FF3B05
:103CF000BBF1010F13D1DFF8D806006800280ED001
:103D0000DFF8C8060068C06A404508D25FF08050FE
:103D1000DFF858180860BFF34F8FBFF36F8F584616
:103D200005B0BDE8F08FF8B504000025002C2AD0BE
:103D3000DFF83C080068002807D0502080F3118885
:103D4000BFF34F8FBFF36F8FFEE700F021F9DFF86D
:103D50008407006820180600DFF870763868001DB8
:103D600000F041FE002808D13868DFF820170A6803
:103D70000123C06A83409A430A60300000F089FB47
:103D800000F00CF90500002D08D15FF08050DFF83D
:103D900004180860BFF34F8FBFF36F8FF1BD70B58C
:103DA000040000F04CFD002C03D1DFF8200605686C
:103DB00000E02500281D00F016FE00280FD1DFF8D6
:103DC0001017EA6A142042438858002807D1DFF808
:103DD000BC160A680123E86A83409A430A60A86A0D
:103DE000002803D015F1180000F0FDFDDFF8F066A3
:103DF000291D300000F0D0FD00F03BFDDFF8CC15B0
:103E00000868854227D1DFF8C8050068002816D069
:103E1000DFF85C070068002807D0502080F3118885
:103E2000BFF34F8FBFF36F8FFEE75FF08050DFF877
:103E30003C170860BFF34F8FBFF36F8F16E03068F9
:103E4000DFF884251268904202D1002008600DE05E
:103E500000F0A1F90AE0DFF878050068002805D035
:103E600000F0EDFC00F06CFB00F003FD70BD10B441
:103E7000020000201300002A07D1502181F311888D
:103E8000BFF34F8FBFF36F8FFEE75969DFF85046DE
:103E9000A14209D1996ADFF86848A14204D0996A21
:103EA000002901D10121080010BC704770B5040041
:103EB0002500002C07D1502080F31188BFF34F8FCD
:103EC000BFF36F8FFEE7002D30D0DFF8006530685C
:103ED00085422BD000F0B3FC2800FFF7C8FF012873
:103EE00022D1281D00F07FFDDFF8A0150A6801230C
:103EF000E86A83401A430A60291DDFF8D425EB6A7B
:103F00001420434302EB030000F046FDE86A3168E9
:103F1000C96A884208D35FF08050DFF878160860DD
:103F2000BFF34F8FBFF36F8F00F0A3FC70BD1FB5C1
:103F300000200390002002900020019000200090BB
:103F400000238022DFF8BC170FF25940FFF742FE32
:103F50000400012C11D1502080F31188BFF34F8F42
:103F6000BFF36F8F0120DFF8681408600020DFF8CE
:103F70006415086000F009FC09E0002C07D150200E
:103F800080F31188BFF34F8FBFF36F8FFEE71FBD24
:103F9000DFF8DC050168491C0160704770B5002539
:103FA000DFF8CC653068002807D1502080F31188F5
:103FB000BFF34F8FBFF36F8FFEE700F040FC306818
:103FC000401E30603068002855D1DFF8FC030068DF
:103FD000002850D0DFF828170868002827D0C868C4
:103FE000C068040014F1180000F0FDFC201D00F072
:103FF000FAFCDFF898140A680123E06A83401A4348
:104000000A60211DDFF8C824E36A1420434302EB51
:10401000030000F0C1FCE06ADFF8B0130968C96A68
:104020008842D7D30120DFF8E4160860D2E7DFF832
:10403000D866306800280ED0306800280BD000F019
:104040001EF8002803D00120DFF8C0160860306891
:10405000401E3060F0E7DFF8B406006801280AD19E
:10406000012005005FF08050DFF828150860BFF3DD
:104070004F8FBFF36F8F00F0FCFB280070BD2DE960
:10408000F0410027DFF8E8040068002874D1DFF869
:1040900044040168491C01600468002C1CD1DFF84D
:1040A000381408680068002807D0502080F3118871
:1040B000BFF34F8FBFF36F8FFEE7D1F80080DFF8BB
:1040C0001C0402680A60C0F80080DFF8440601683A
:1040D000491C016000F034FADFF83886D8F8000097
:1040E00084423BD3DFF8F01308680068002804D14D
:1040F0005FF0FF30C8F8000030E00868C068C068B2
:10410000050068680600B44202D2C8F8006025E0E5
:10411000281D00F068FCA86A002803D015F11800DB
:1041200000F061FCDFF864130A680123E86A834049
:104130001A430A60291DDFF89823EB6A14204343D1
:1041400002EB030000F028FCE86ADFF8801209683F
:10415000C96A8842C6D301200700C3E7DFF870139D
:10416000DFF868020068C26A1420424388580228B7
:1041700007D30120070004E0DFF88C050168491C23
:104180000160DFF888050068002801D001200700E1
:104190003800BDE8F081DFF8D8030068002804D0BB
:1041A0000120DFF8681508602DE00020DFF85C15BD
:1041B0000860DFF8D8020068B0FA80F1D1F11F0181
:1041C0001422DFF80C3302FB01F01858002807D145
:1041D000502080F31188BFF34F8FBFF36F8FFEE73E
:1041E00002FB01F203EB020042685268426042683F
:1041F00010F108039A4202D1426852684260406856
:10420000C068724A10607047F8B504000D00002CB9
:1042100007D1502080F31188BFF34F8FBFF36F8F0A
:10422000FEE76A4F386810F11801200000F0C0FB6B
:104230003868001D00F0D7FB002808D13868DFF887
:104240004C120A680123C06A83409A430A6015F140
:10425000010F06D13868011DDFF8840200F09CFBD5
:1042600007E0DFF8B404006828180600300000F00A
:1042700010F9F1BD38B50500E868C468002C07D115
:10428000502080F31188BFF34F8FBFF36F8FFEE78D
:1042900014F1180000F0A7FBDFF8D4020068002832
:1042A00013D1201D00F09FFB78490A680123E06AC2
:1042B00083401A430A60211D854AE36A1420434360
:1042C00002EB030000F068FB05E014F11801DFF8D1
:1042D000300400F061FB3D480068C06AE16A884232
:1042E00005D201200121DFF82424116000E0002024
:1042F00032BD002807D1502181F31188BFF34F8FC1
:10430000BFF36F8FFEE7DFF8081409680160DFF87C
:104310000814096841607047F8B504000D00002CCE
:1043200007D1502080F31188BFF34F8FBFF36F8FF9
:10433000FEE7002D07D1502080F31188BFF34F8F87
:10434000BFF36F8FFEE700F07AFA624806682868CC
:1043500010F1010F01D100271AE0DFF8B403006863
:104360002168884204D06068864201D301270FE0AB
:104370006068301A2968884209D22968891B6068F8
:10438000411829602000FFF7B4FF002700E0012753
:1043900000F06FFA3800F2BD0120DFF870130860FA
:1043A0007047000010B5040000F072F8484800683B
:1043B0000228F9D35FF0805076490860BFF34F8F31
:1043C000BFF36F8FF0E700001C380020103800208A
:1043D00028380020383800202DE9F04104000D0075
:1043E00016001F005FF00008B8F1100F0CD215F88E
:1043F000080004EB080181F8340015F808000028D3
:1044000002D018F10108EFE7002084F84300082EDD
:1044100001D307200600E662E66400202065201D27
:1044200000F0B7FA14F1180000F0B3FA2461D6F1E5
:104430000800A061646200206065002084F85800D4
:10444000BDE8F08170B50024082C08D22048142162
:1044500001FB04F1084400F08DFA641CF4E7DFF876
:10446000BC52280000F086FADFF8B462300000F099
:1044700081FADFF88C0200F07DFA194800F07AFA30
:10448000154805601548066070BD000024380020FE
:10449000704710B50400DFF88C0201684C600D49CC
:1044A00009688C4206D20068011D0C48006800F0C3
:1044B0007FFA0BE00068011D0748006800F078FAF9
:1044C000DFF8500201688C4200D2046010BD000089
:1044D0002035002020380020143800201838002013
:1044E000743700202DE9F84307000D00002D06D198
:1044F000380080B2800000F08BFA060000E02E0049
:10450000002E0BD05C2000F083FA0400002C01D0B8
:10451000266304E0300000F0DFFA00E00024002C05
:104520000BD0380080B286005FF0A508D4F8309038
:1045300042463100484600F00BFB2000BDE8F28304
:10454000DFF8E42110680068002805D15FF0FF3033
:10455000DFF8C021106007E01068C068C068010083
:104560004868DFF8B02110607047000004ED00E0FB
:104570003C380020DFF8B4010068002801D1012098
:1045800007E0DFF8AC010068002801D1022000E05C
:104590000020704704ED00E02DE9F0410400250003
:1045A000002C43D0DFF87C81E86AD8F80010C96A93
:1045B00088423BD2A869002805D4D8F80000C06A18
:1045C000D0F10800A8611A4E14276869E96A794396
:1045D0003144884226D1281D00F005FA00280CD16C
:1045E000E86A78433058002807D1DFF848110A6894
:1045F0000123E86A83409A430A60D8F80000C06A41
:10460000E862DFF830110A680123E86A83401A4340
:104610000A60291DE86A07FB00F706EB070000F0B7
:10462000BBF903E0D8F80000C06AE862BDE8F08199
:104630002035002070B5040025000026002C50D045
:10464000DFF8E0000068854207D0502080F3118831
:10465000BFF34F8FBFF36F8FFEE7286D002807D1A0
:10466000502080F31188BFF34F8FBFF36F8FFEE7A9
:10467000286D401E2865E86AE96C884231D0286DB3
:1046800000282ED1281D00F0AEF900280FD1DFF848
:10469000A810EA6A142042438858002807D1DFF89E
:1046A00094100A680123E86A83409A430A60E86C20
:1046B000E862E86AD0F10800A861DFF878100A68BB
:1046C0000123E86A83401A430A60291DDFF8682045
:1046D000EB6A1420434302EB030000F05DF9012074
:1046E0000600300070BDDFF83C100868002803D0D9
:1046F0000868026D521C02650868704700000000DF
:104700006037002028A600082C3800203038002010
:10471000343800200C0000202038002038370020DA
:104720004C37002010380020143800202838002092
:104730003C3800202438002020350020001F5FF086
:1047400080730360001F0160001F0FF215030360F8
:1047500014380260001F7FF00203036020387047A6
:104760006E48006810F1010F07D0502080F31188C7
:10477000BFF34F8FBFF36F8FFEE7502080F3118898
:10478000BFF34F8FBFF36F8FFEE7E0B5644801685A
:10479000644A914207D1502080F31188BFF34F8FB4
:1047A000BFF36F8FFEE700685F49884207D1502052
:1047B00080F31188BFF34F8FBFF36F8FFEE75B4825
:1047C00001780191FF21017001788DF800109DF8AA
:1047D000001011F05001564A1170564907220A6024
:1047E0009DF80020120608D50A68521E0A609DF83E
:1047F000002052008DF80020F2E70A6812020A60D9
:104800000A6812F4E0620A60019901704A4801687E
:1048100051F470010160016851F07041016000F0D5
:1048200095F800203D49086000F00CFA4348016803
:1048300051F04041016000F0F9F900200EBD502018
:1048400080F31188BFF34F8FBFF36F8F33490A682E
:10485000521C0A60096801290AD139490968090608
:1048600006D080F31188BFF34F8FBFF36F8FFEE741
:1048700070472A490868002807D1502080F3118822
:10488000BFF34F8FBFF36F8FFEE70868401E0860CD
:104890000868002802D1002080F31188704780B595
:1048A000EFF31180502080F31188BFF34F8FBFF3D7
:1048B0006F8FFFF7E4FB002803D05FF080502049A2
:1048C0000860002080F3118801BD0000EFF305802F
:1048D000102811D31B4A1268125C11000A00144BF5
:1048E0001B78D2B29A4207D2502282F31188BFF3CA
:1048F0004F8FBFF36F8FFEE70E4A1268124B1B6893
:1049000013F4E0639A4207D2502282F31188BFF376
:104910004F8FBFF36F8FFEE7704700000400002049
:1049200000ED00E071C20F4170C20F4100E400E0F1
:10493000643800200C38002020ED00E034EF00E067
:1049400004ED00E084A600080CED00E006480068D5
:104950004FF47A71B0FBF1F0401E04490860072063
:1049600003490860704700BF0800002014E000E021
:1049700010E000E010F1080141605FF0FF3181605C
:1049800010F10801C16010F108010161002101600E
:10499000704700210161704742684A6093688B60EC
:1049A000936859609160086103685B1C03607047FD
:1049B00010B40B6813F1010F01D1026907E010F187
:1049C000080254682468A34201D35268F9E7546886
:1049D0004C604C68A1608A60516008610468641C86
:1049E000046010BC7047010008698A684B689A60CF
:1049F0004A688B685A6042688A4201D18A6842607C
:104A000000220A610268521E0260006870470000BE
:104A10002DE9F84304000027FFF7BAFADFF81891F0
:104A2000D9F80000002804D100F075F80120C9F879
:104A30000000002C0AD041480088241814F0070F09
:104A400004D014F1080014F00704041B002C3ED01D
:104A500042F2F87084423AD239490D000868804623
:104A6000D8F80400A04207D2D8F80000002803D0EC
:104A70004546D8F80080F3E73248804527D02F48D4
:104A80002A6803881A441700D8F800202A60008892
:104A90004000D8F80420121B904212D208EB040008
:104AA0000600D8F80400001B7060C8F80440706865
:104AB0000A685268824201D20968F9E70A683260DE
:104AC0000E6021490A68D8F80400121A0A60FFF73C
:104AD00065FA3800BDE8F283F8B504002600002C22
:104AE00018D016480088404206443500FFF750FAB7
:104AF0006F68134801684968B94201D20068F9E754
:104B000001682960056010490A68686882180A60AF
:104B1000FFF744FAF1BD0D49C908C9000848016012
:104B200000224260074A42F2F8735360002010608E
:104B30000800436002607047EC370020FA34000838
:104B4000B8370020C0370020000000203C000020C3
:104B500062F30F2262F31F42401810F0030308D0E3
:104B6000C91A1FD3DB0748BF00F8012D28BF20F862
:104B7000022D130030B414461546103928BF20E921
:104B80003C00FAD8490728BF20E90C0048BF40F88C
:104B9000042D890028BF20F8022D48BF00F8012D00
:104BA00030BC7047C91818BF00F8012DCB0728BFCB
:104BB00000F8012D70470000EFF30980BFF36F8FFD
:104BC000244B1A681EF0100F08BF20ED108A20E950
:104BD000F04F106008B44FF0500080F31188BFF31D
:104BE0004F8FBFF36F8FFFF7D6FA4FF0000080F3BF
:104BF000118808BC19680868B0E8F04F1EF0100F63
:104C000008BFB0EC108A80F30988BFF36F8F70473C
:104C1000104B19680868B0E8F04F80F30988BFF3BB
:104C20006F8F4FF0000080F3118870470A480068CA
:104C3000006880F3088862B661B6BFF34F8FBFF398
:104C40006F8F00DFDFF81400016841F4700101602C
:104C5000704700001038002008ED00E088ED00E00B
:104C6000DFF89807018851F4006101807047DFF890
:104C70009007018851F4006101807047DFF88407D4
:104C80000188090604D5DFF880170988090607D4CA
:104C9000DFF874170988490604D50088400601D555
:104CA000012000E00020C0B27047DFF85C070088F8
:104CB000800607D5DFF84C070088C0F3401010F0DD
:104CC000010000E00020C0B27047DFF83C07018817
:104CD00051F0800101807047DFF82C170A884FF6E9
:104CE0007F7002400A807047DFF81C07018851F08E
:104CF000400101807047DFF810170A884FF6BF7037
:104D000002400A80704780B5012240F22551DFF849
:104D1000F406FDF7BAFB01BD80B5002240F2255133
:104D2000DFF8E006FDF7B1FB01BDDFF8E006008823
:104D3000C0B270470100C9B2DFF8D02611807047B9
:104D400038B504000D00280010F0050F1ED0FFF745
:104D5000D2FF0020A4F830030020A4F82E02002087
:104D600084F82802012084F82902002084F82B020C
:104D700094F82B0284F82A020020A4F82E020020C6
:104D8000A4F8300300202077FFF7AEFF280010F0D2
:104D90000A0F14D0FFF7C0FF0020A4F82401002060
:104DA00084F82300012084F82100012084F82200E7
:104DB000002084F8200000202077FFF7A4FF31BDF9
:104DC0000100087F002803D101200877002012E0AD
:104DD000087F02280ED191F8280201280AD091F804
:104DE0003603012806D191F834034A7A904201D261
:104DF000012000E000207047F0B403004FF6FF747C
:104E00000020002600258D4218D2187802005B1C75
:104E10001000C0B2444000200600082E0CD2E0076B
:104E200006D5A4B2640884F4204494F0010401E09F
:104E3000A4B26408761CF0E76D1CE4E720002700AC
:104E4000BFB23F0AFFB2C0B250EA072080B2F0BC46
:104E500070472DE9FE4F04000D0016001F00DFF81B
:104E6000B005006840680190FFF7FAFE012084F861
:104E7000280294F83403401C84F83403DFF8948546
:104E800098F80000042804DB3900DFF88C05FDF7F2
:104E9000EAFFB91E3000FFF7AFFF814606EB0700BF
:104EA000801E80F8009010F1010A484680B2000A86
:104EB0008AF80000012084F83503002084F83603C6
:104EC00098F8000005280BDB4A4692B202F0FF0278
:104ED000494689B2090A89B2DFF84005FDF7C3FFE8
:104EE000012084F829020020A4F83003012084F86E
:104EF0002A02002084F82B02A4F82E720097B246F2
:104F000014F50C79009A51464846FDF731FD5FF0E3
:104F10007E095FF0000B5846C0B2B8420FDA98F82D
:104F20000000052808DB5846C0B2204490F8301233
:104F3000DFF8EC04FDF797FF1BF1010BEBE7002016
:104F4000B0F57A7F01DA401CFAE7FFF7BEFEBDE854
:104F5000F78FDFF8BC1408600021A0F8301300219F
:104F6000A0F82E12DFF8BC14016070472DE9F04163
:104F7000040000206077002084F828020020A07739
:104F80000020E077002084F82000012084F8210030
:104F9000012084F82200012084F82902002084F8EE
:104FA0002A02002084F82B020020A4F8240100200B
:104FB000A4F826020020A4F82E020020A4F8300352
:104FC000002084F82300002084F833030020A4F894
:104FD00030030020A4F82E0200202077002084F85F
:104FE0003703002656F0200656F00106DFF8387425
:104FF0007E7002223900002000F02EFA0500BD70FC
:10500000280080B2000AF870DFF82084207A88F83F
:10501000000088F8016002224146002000F01CFADE
:10502000070088F80270380080B2000A88F8030090
:10503000DFF8E0030078042804DB217ADFF8F003CE
:10504000FDF711FFBDE8F08170B5DFF8C403056816
:10505000FFF72BFE002872D0FFF767FE0400DFF891
:10506000B4633078052805DB2100C9B2DFF8C4033A
:10507000FDF7F9FE2000297AC0B288421FD195F8C9
:10508000210001281BD1022085F82100002085F88D
:105090003403002085F83503012085F8370300200C
:1050A00085F83903002085F83803B5F82401411C40
:1050B000A5F8241180B2284480F824403FE095F8F8
:1050C000210001280CD13078022805DB2100C9B26B
:1050D000DFF86403FDF7C7FE6869401C68612EE0D5
:1050E00095F82200022819D12000C0B25E2802D112
:1050F0007E20040005E02000C0B25D2801D17D20A3
:105100000400B5F82401411CA5F8241180B22844FC
:1051100080F82440012085F8220010E02000C0B271
:105120007D2803D1022085F8220008E0B5F824018B
:10513000411CA5F8241180B2284480F82440FFF7D0
:105140009DFD002826D0B5F83003B5F82E12884210
:105150000ED2B5F83003411CA5F8301380B22844B4
:1051600090F8300204002000C0B2FFF7E3FD11E028
:10517000002085F8370300202877002085F82802D2
:10518000012085F82B02002085F82A02FFF7A4FDF4
:10519000FFF7B1FD70BD38B59D480468656894F8A7
:1051A0003703012824D1207F012803D094F8360347
:1051B000012811D10220207728006968884700283B
:1051C0001ED0012084F836039C480168491C016008
:1051D0002800A968884713E002202077012084F87E
:1051E0003503914A042311782000FFF732FE07E0CF
:1051F000280069688847002802D02800A9688847E5
:1052000031BD10B5824804680122B4F8261214F5A5
:10521000937000F064F810BD2DE9F8437C480468F1
:1052200094F82300002830D094F82400217A884292
:1052300022D12069401C2061B4F8245114F12406C5
:1052400014F593772A0031003800FDF791FBB4F88C
:105250002401A4F82602B4F8247114F1240814F5EA
:105260000C793A0041464846FDF782FBB4F8240128
:10527000A4F82E0200F06DF90020A4F8240100200B
:1052800084F82300012084F82100BDE8F18380B573
:105290005F49086890F83903401C0A6882F83903AE
:1052A000086890F8390304280EDB0868B0F8240178
:1052B000002809D00120096881F82300FFF7ACFF1E
:1052C0004DA0FDF7D0FD06E0086890F82802002800
:1052D00001D1FFF7CCFC322000F0B6F901BD2DE979
:1052E000F84304000F0015000026380080B2204467
:1052F000B0F10108380080B2042834DB98F80010BF
:10530000B8F10108090298F8000001430E00B14607
:10531000390089B2891E2000FFF76EFD1FFA89F956
:10532000814509D14648FDF79EFD6278390089B272
:10533000A01C00F030F808E036480078032804DBB1
:10534000390089B23F48FDF78EFD390089B2891EC8
:105350002000FFF751FD80B20200310089B23A48C7
:10536000FDF781FD08E02B480078032804DB3900B5
:1053700089B23648FDF777FDBDE8F18338B5040002
:105380000D0023482B002200016891F832130068B9
:10539000FFF75FFD31BD2DE9FC4104000D00160053
:1053A0002078677857EA0027A07894F8038058EAB5
:1053B0000028E0780090A378627821782448FDF7EF
:1053C00052FD43469BB23A0092B23100C9B2214825
:1053D000FDF749FD380080B20421424692B290FBAD
:1053E000F1F301FB1300010089B23000C0B200F0FC
:1053F00060F9BDE8F38100002300000018000240BE
:105400001A000240001001400C100140041001403D
:10541000F03700203000002008A1000808A600088E
:1054200010A6000878A40008F4370020F837002000
:105430001CA1000818A600086CA40008FC37002076
:1054400020A60008F49D000830A100087C9A0008FE
:105450005CA30008089F000830B413005A1E002BFC
:105460000DD00400A4B2074D80B20B78584000F074
:10547000FF0035F8100090EA1420491CEDE780B2D7
:1054800030BC7047CC880008F8B503220021012009
:10549000FEF7A2F83A490860032200210120FEF736
:1054A0009BF83849086000200390002002900020FB
:1054B00001900620009000234FF4807232490FF2D1
:1054C0004900FEF787FB0020039000200290002097
:1054D00001900620009000234FF480722B490FF2B8
:1054E0004900FEF777FB0020039000200290002087
:1054F0000190062000900023802225490FF24900E8
:10550000FEF768FB05B000BD10B5040000235FF096
:10551000FF3200211A480068FEF7C9F90128F5D1C9
:10552000FFF76FFEF2E7000010B5040000235FF004
:10553000FF32002113480068FEF7B9F90128F5D1C0
:10554000FFF729FEF2E7000010B50400FFF79FFE09
:10555000FCE710B50F4C210009480068FEF74DF933
:10556000206801280AD12068002807D05FF0805009
:1055700009490860BFF34F8FBFF36F8F10BD000064
:1055800004380020003800206CA3000884A4000820
:1055900090A400080838002004ED00E010B40200D8
:1055A00052B2002A09D50A012D4B040064B214F04E
:1055B0000F04234403F8042C04E00A01294B0400DF
:1055C00064B21A5510BC7047BFF34F8F26490A6862
:1055D00012F4E062254802430A60BFF34F8F00BF18
:1055E000FDE710B50400601EB0F1807F01D30120FB
:1055F0000EE0601E1E4908600F215FF0FF30FFF7CC
:10560000CDFF00201B49086007201B4908600020CF
:1056100010BDF8B500215FF00060FDF794F94FF47C
:105620004070FDF757F96846FCF7B8FF01984FF452
:105630007A71B0FBF1F0FFF7D4FF0F215FF0FF307C
:10564000FFF7ACFF05B000BD10B504000120B4FBAE
:10565000F0F0FEF768FB10BD80B5FFF7B5FF01BDA8
:1056600018ED00E000E400E00CED00E00400FA05B5
:1056700014E000E018E000E010E000E0F8B500F011
:1056800095F98D49087000F091F98C490870002057
:105690000390002002908A48019006200090002389
:1056A0004FF4807287490FF23D10FEF793FA05B070
:1056B00000BDF8B504000D0016002000C0B203289C
:1056C00059D0042802D0062831D085E0320092B2A9
:1056D000290089B27C48FDF7C6FB00273800C0B21C
:1056E000310080B289B2884213D2E819C0B2FCF707
:1056F000F3FD7249020092B2120A3B00DBB201EBE9
:105700004303DA703A00D2B201EB420108717F1C08
:10571000E4E76A48042141703100C9B24900817050
:10572000310089B24900491DFFF728FE59E03200D7
:1057300092B2290089B26548FDF795FB280080B236
:10574000042804DA6248290089B2465404E029009A
:1057500089B26048FDF787FB574806214170002158
:105760008170C570310089B2090A01714671082142
:10577000FFF704FE35E0320092B2290089B25648A4
:10578000FDF771FB00273800C0B2310080B289B24A
:10579000884213D2E819C0B2FCF79EFD47490200C7
:1057A00092B2120A3B00DBB201EB4303DA703A001B
:1057B000D2B201EB420108717F1CE4E73F480321AC
:1057C00041703100C9B249008170310089B249008D
:1057D000491DFFF7D3FD04E02100C9B23F48FDF7A2
:1057E00042FBF1BDF8B50400002500264FF4FA7223
:1057F0004FF4FA714FF4FA7000F065F900273800A1
:10580000C0B2042823DA36480078002804D1304892
:105810003900C9B2405C06003800C0B2FCF79DFCFC
:105820000A20FFF711FF3100C9B23800C0B2FCF7FF
:10583000AFFC0A20FFF708FF3100C9B23800C0B240
:10584000FCF710FD0A20FFF7FFFE7F1CD7E7244876
:105850000078002806D0761C3000C0B2662801DB34
:10586000002006001F4800680121B0FBF1F0FEF7A0
:105870005AFAC3E70100C9B2002906D00121184A2B
:105880001170C821174A116006E00021144A1170F6
:105890004FF47A71134A1160704738B504000D0057
:1058A0000B482100C9B245542A00D2B22100C9B226
:1058B0000D48FDF7D8FA31BD1800002088370020C8
:1058C0004C380020689F0008809F0008989F0008BF
:1058D00014000020549B0008B09F0008BCA30008DF
:1058E0006838002010000020A8A100083EB5012162
:1058F0001020FCF70BFF01211020FCF707FF01210E
:105900001020FCF703FF01211020FCF7FFFE082008
:10591000009002208DF8050000208DF80400002082
:105920008DF8060002208DF80700314C69462000F2
:10593000FCF728FF1020009069462000FCF722FFAA
:105940002020009069462000FCF71CFF40200090BA
:1059500069462000FCF716FF002508212000FCF70F
:1059600076FF002800D06D1C10212000FCF76FFF8F
:10597000002800D0AD1C20212000FCF768FF002883
:1059800000D02D1D40212000FCF761FF002800D031
:105990000835184C2000FDF766FA2900C9B21648F0
:1059A000FDF761FA2000FDF75EFA37BD38B5002437
:1059B0000F4D08212800FCF74AFF002800D0641C86
:1059C00010212800FCF743FF002800D0A41C202150
:1059D0002800FCF73CFF002800D0241D40212800AF
:1059E000FCF735FF002800D008342000C0B232BDDB
:1059F000001002405494000860A4000880B586B0EE
:105A000001211020FCF782FE02208DF815000120F4
:105A10008DF8140000208DF8160001208DF8170075
:105A20000420049004A94D48FCF7ACFE002003902C
:105A3000002002904A480190042000900023802218
:105A400048490FF20D00FEF7C5F807B000BD000091
:105A5000F8B50400444D64202880444E6420308012
:105A60000120FEF760F9424F3888401C38804148D9
:105A70000178012910D140490A68521C0A600A685D
:105A80003E4B1B689A4207D100220A600021017038
:105A90004FF4FA702880308038882988884204D1F1
:105AA00004212E48FCF7E1FEDAE73888298832889D
:105AB00012FA81F18842D3DB04212848FCF7D7FE93
:105AC00000203880CCE770B504000D001600002CD3
:105AD00043D02B480078042807DB33009BB22A0010
